{
  "_format": "hh3-artifact-1",
  "contractName": "Voting",
  "sourceName": "contracts/Voting.sol",
  "abi": [
    {
      "inputs": [],
      "stateMutability": "nonpayable",
      "type": "constructor"
    },
    {
      "anonymous": false,
      "inputs": [
        {
          "indexed": true,
          "internalType": "uint256",
          "name": "id",
          "type": "uint256"
        },
        {
          "indexed": false,
          "internalType": "string",
          "name": "name",
          "type": "string"
        }
      ],
      "name": "CandidateAdded",
      "type": "event"
    },
    {
      "anonymous": false,
      "inputs": [
        {
          "indexed": true,
          "internalType": "uint256",
          "name": "id",
          "type": "uint256"
        },
        {
          "indexed": false,
          "internalType": "string",
          "name": "name",
          "type": "string"
        }
      ],
      "name": "CandidateRemoved",
      "type": "event"
    },
    {
      "anonymous": false,
      "inputs": [
        {
          "indexed": true,
          "internalType": "address",
          "name": "voter",
          "type": "address"
        }
      ],
      "name": "VoterRemovedFromWhitelist",
      "type": "event"
    },
    {
      "anonymous": false,
      "inputs": [
        {
          "indexed": true,
          "internalType": "address",
          "name": "voter",
          "type": "address"
        }
      ],
      "name": "VoterWhitelisted",
      "type": "event"
    },
    {
      "anonymous": false,
      "inputs": [
        {
          "indexed": false,
          "internalType": "uint256",
          "name": "startTime",
          "type": "uint256"
        },
        {
          "indexed": false,
          "internalType": "uint256",
          "name": "endTime",
          "type": "uint256"
        }
      ],
      "name": "VotingTimeSet",
      "type": "event"
    },
    {
      "anonymous": false,
      "inputs": [
        {
          "indexed": true,
          "internalType": "uint256",
          "name": "_candidateId",
          "type": "uint256"
        }
      ],
      "name": "votedEvent",
      "type": "event"
    },
    {
      "inputs": [
        {
          "internalType": "address[]",
          "name": "_voters",
          "type": "address[]"
        }
      ],
      "name": "addBatchToWhitelist",
      "outputs": [],
      "stateMutability": "nonpayable",
      "type": "function"
    },
    {
      "inputs": [
        {
          "internalType": "string",
          "name": "_name",
          "type": "string"
        }
      ],
      "name": "addCandidate",
      "outputs": [],
      "stateMutability": "nonpayable",
      "type": "function"
    },
    {
      "inputs": [
        {
          "internalType": "address",
          "name": "_voter",
          "type": "address"
        }
      ],
      "name": "addToWhitelist",
      "outputs": [],
      "stateMutability": "nonpayable",
      "type": "function"
    },
    {
      "inputs": [
        {
          "internalType": "uint256",
          "name": "",
          "type": "uint256"
        }
      ],
      "name": "candidates",
      "outputs": [
        {
          "internalType": "uint256",
          "name": "id",
          "type": "uint256"
        },
        {
          "internalType": "string",
          "name": "name",
          "type": "string"
        },
        {
          "internalType": "uint256",
          "name": "voteCount",
          "type": "uint256"
        },
        {
          "internalType": "bool",
          "name": "exists",
          "type": "bool"
        }
      ],
      "stateMutability": "view",
      "type": "function"
    },
    {
      "inputs": [],
      "name": "candidatesCount",
      "outputs": [
        {
          "internalType": "uint256",
          "name": "",
          "type": "uint256"
        }
      ],
      "stateMutability": "view",
      "type": "function"
    },
    {
      "inputs": [
        {
          "internalType": "address",
          "name": "_voter",
          "type": "address"
        }
      ],
      "name": "checkHasVoted",
      "outputs": [
        {
          "internalType": "bool",
          "name": "",
          "type": "bool"
        }
      ],
      "stateMutability": "view",
      "type": "function"
    },
    {
      "inputs": [],
      "name": "endTime",
      "outputs": [
        {
          "internalType": "uint256",
          "name": "",
          "type": "uint256"
        }
      ],
      "stateMutability": "view",
      "type": "function"
    },
    {
      "inputs": [],
      "name": "getAllCandidates",
      "outputs": [
        {
          "components": [
            {
              "internalType": "uint256",
              "name": "id",
              "type": "uint256"
            },
            {
              "internalType": "string",
              "name": "name",
              "type": "string"
            },
            {
              "internalType": "uint256",
              "name": "voteCount",
              "type": "uint256"
            },
            {
              "internalType": "bool",
              "name": "exists",
              "type": "bool"
            }
          ],
          "internalType": "struct Voting.Candidate[]",
          "name": "",
          "type": "tuple[]"
        }
      ],
      "stateMutability": "view",
      "type": "function"
    },
    {
      "inputs": [
        {
          "internalType": "uint256",
          "name": "_candidateId",
          "type": "uint256"
        }
      ],
      "name": "getCandidate",
      "outputs": [
        {
          "internalType": "uint256",
          "name": "id",
          "type": "uint256"
        },
        {
          "internalType": "string",
          "name": "name",
          "type": "string"
        },
        {
          "internalType": "uint256",
          "name": "voteCount",
          "type": "uint256"
        },
        {
          "internalType": "bool",
          "name": "exists",
          "type": "bool"
        }
      ],
      "stateMutability": "view",
      "type": "function"
    },
    {
      "inputs": [],
      "name": "getContractInfo",
      "outputs": [
        {
          "internalType": "address",
          "name": "_owner",
          "type": "address"
        },
        {
          "internalType": "uint256",
          "name": "_candidatesCount",
          "type": "uint256"
        },
        {
          "internalType": "bool",
          "name": "_timingEnabled",
          "type": "bool"
        },
        {
          "internalType": "uint256",
          "name": "_startTime",
          "type": "uint256"
        },
        {
          "internalType": "uint256",
          "name": "_endTime",
          "type": "uint256"
        },
        {
          "internalType": "bool",
          "name": "_whitelistEnabled",
          "type": "bool"
        },
        {
          "internalType": "string",
          "name": "_votingStatus",
          "type": "string"
        }
      ],
      "stateMutability": "view",
      "type": "function"
    },
    {
      "inputs": [
        {
          "internalType": "uint256",
          "name": "_candidateId",
          "type": "uint256"
        }
      ],
      "name": "getVoteCount",
      "outputs": [
        {
          "internalType": "uint256",
          "name": "",
          "type": "uint256"
        }
      ],
      "stateMutability": "view",
      "type": "function"
    },
    {
      "inputs": [],
      "name": "getVotingStatus",
      "outputs": [
        {
          "internalType": "string",
          "name": "",
          "type": "string"
        }
      ],
      "stateMutability": "view",
      "type": "function"
    },
    {
      "inputs": [
        {
          "internalType": "address",
          "name": "",
          "type": "address"
        }
      ],
      "name": "hasVoted",
      "outputs": [
        {
          "internalType": "bool",
          "name": "",
          "type": "bool"
        }
      ],
      "stateMutability": "view",
      "type": "function"
    },
    {
      "inputs": [],
      "name": "isVotingOpen",
      "outputs": [
        {
          "internalType": "bool",
          "name": "",
          "type": "bool"
        }
      ],
      "stateMutability": "view",
      "type": "function"
    },
    {
      "inputs": [
        {
          "internalType": "address",
          "name": "",
          "type": "address"
        }
      ],
      "name": "isWhitelisted",
      "outputs": [
        {
          "internalType": "bool",
          "name": "",
          "type": "bool"
        }
      ],
      "stateMutability": "view",
      "type": "function"
    },
    {
      "inputs": [],
      "name": "owner",
      "outputs": [
        {
          "internalType": "address",
          "name": "",
          "type": "address"
        }
      ],
      "stateMutability": "view",
      "type": "function"
    },
    {
      "inputs": [
        {
          "internalType": "uint256",
          "name": "_candidateId",
          "type": "uint256"
        }
      ],
      "name": "removeCandidate",
      "outputs": [],
      "stateMutability": "nonpayable",
      "type": "function"
    },
    {
      "inputs": [
        {
          "internalType": "address",
          "name": "_voter",
          "type": "address"
        }
      ],
      "name": "removeFromWhitelist",
      "outputs": [],
      "stateMutability": "nonpayable",
      "type": "function"
    },
    {
      "inputs": [
        {
          "internalType": "bool",
          "name": "_enabled",
          "type": "bool"
        }
      ],
      "name": "setTimingEnabled",
      "outputs": [],
      "stateMutability": "nonpayable",
      "type": "function"
    },
    {
      "inputs": [
        {
          "internalType": "uint256",
          "name": "_startTime",
          "type": "uint256"
        },
        {
          "internalType": "uint256",
          "name": "_endTime",
          "type": "uint256"
        }
      ],
      "name": "setVotingTime",
      "outputs": [],
      "stateMutability": "nonpayable",
      "type": "function"
    },
    {
      "inputs": [
        {
          "internalType": "bool",
          "name": "_enabled",
          "type": "bool"
        }
      ],
      "name": "setWhitelistEnabled",
      "outputs": [],
      "stateMutability": "nonpayable",
      "type": "function"
    },
    {
      "inputs": [],
      "name": "startTime",
      "outputs": [
        {
          "internalType": "uint256",
          "name": "",
          "type": "uint256"
        }
      ],
      "stateMutability": "view",
      "type": "function"
    },
    {
      "inputs": [],
      "name": "timingEnabled",
      "outputs": [
        {
          "internalType": "bool",
          "name": "",
          "type": "bool"
        }
      ],
      "stateMutability": "view",
      "type": "function"
    },
    {
      "inputs": [
        {
          "internalType": "uint256",
          "name": "_candidateId",
          "type": "uint256"
        }
      ],
      "name": "vote",
      "outputs": [],
      "stateMutability": "nonpayable",
      "type": "function"
    },
    {
      "inputs": [],
      "name": "whitelistEnabled",
      "outputs": [
        {
          "internalType": "bool",
          "name": "",
          "type": "bool"
        }
      ],
      "stateMutability": "view",
      "type": "function"
    }
  ],
  "bytecode": "0x608060405234801561000f575f5ffd5b505f80546001600160a01b0319163317905560408051808201909152600d81526c44696e68204d616e682044756360981b602082015261004e90610117565b60408051808201909152601081526f4e677579656e204769612054756f6e6760801b602082015261007e90610117565b60408051808201909152601081526f4e677579656e204e676f63205468757960801b60208201526100ae90610117565b6040805180820190915260128152715472756f6e6720486f616e67204b68616e6760701b60208201526100e090610117565b6040805180820190915260128152715472616e2042756920486f616e67204b696d60701b602082015261011290610117565b610382565b60018054905f610126836101d7565b9091555050604080516080810182526001805480835260208084018681525f858701819052606086018590529283526002909152939020825181559251919291908201906101749082610293565b5060408281015160028301556060909201516003909101805460ff191691151591909117905560015490517fe83b2a43e7e82d975c8a0a6d2f045153c869e111136a34d1889ab7b598e396a3906101cc90849061034d565b60405180910390a250565b5f600182016101f457634e487b7160e01b5f52601160045260245ffd5b5060010190565b634e487b7160e01b5f52604160045260245ffd5b600181811c9082168061022357607f821691505b60208210810361024157634e487b7160e01b5f52602260045260245ffd5b50919050565b601f82111561028e57805f5260205f20601f840160051c8101602085101561026c5750805b601f840160051c820191505b8181101561028b575f8155600101610278565b50505b505050565b81516001600160401b038111156102ac576102ac6101fb565b6102c0816102ba845461020f565b84610247565b6020601f8211600181146102f2575f83156102db5750848201515b5f19600385901b1c1916600184901b17845561028b565b5f84815260208120601f198516915b828110156103215787850151825560209485019460019092019101610301565b508482101561033e57868401515f19600387901b60f8161c191681555b50505050600190811b01905550565b602081525f82518060208401528060208501604085015e5f604082850101526040601f19601f83011684010191505092915050565b611aae8061038f5f395ff3fe608060405234801561000f575f5ffd5b506004361061016d575f3560e01c8063581c281c116100d95780638dafa15e11610093578063b2c2f2e81161006e578063b2c2f2e81461034c578063e35f8cef1461035f578063e43252d71461038a578063fa7f1bae1461039d575f5ffd5b80638dafa15e14610313578063a3d19d8c14610326578063a78cb83114610339575f5ffd5b8063581c281c1461029057806378e97925146102a55780637cc1f867146102ae5780637ea584b5146102c95780638ab1d681146102d65780638da5cb5b146102e9575f5ffd5b80633197cbb61161012a5780633197cbb61461020f5780633477ee2e1461021857806335b8e8201461023b5780633af32abf1461024e578063462e91ec1461027057806351fb012d14610283575f5ffd5b80630121b93f14610171578063052d9e7e1461018657806309e9d7e21461019957806309eef43e146101ac5780632d35a8a2146101e35780632e6997fe146101fa575b5f5ffd5b61018461017f3660046115b4565b6103a5565b005b6101846101943660046115cb565b610679565b6101846101a73660046115b4565b6106b5565b6101ce6101ba3660046115f1565b60036020525f908152604090205460ff1681565b60405190151581526020015b60405180910390f35b6101ec60015481565b6040519081526020016101da565b61020261092c565b6040516101da9190611645565b6101ec60055481565b61022b6102263660046115b4565b610b2b565b6040516101da94939291906116d5565b61022b6102493660046115b4565b610bdd565b6101ce61025c3660046115f1565b60076020525f908152604090205460ff1681565b61018461027e366004611719565b610cfd565b6008546101ce9060ff1681565b610298610e23565b6040516101da91906117cc565b6101ec60045481565b6102b6610ed6565b6040516101da97969594939291906117de565b6006546101ce9060ff1681565b6101846102e43660046115f1565b610fd4565b5f546102fb906001600160a01b031681565b6040516001600160a01b0390911681526020016101da565b6101846103213660046115cb565b611045565b61018461033436600461182d565b611081565b61018461034736600461189e565b6111fe565b6101ec61035a3660046115b4565b611331565b6101ce61036d3660046115f1565b6001600160a01b03165f9081526003602052604090205460ff1690565b6101846103983660046115f1565b6113ff565b6101ce6114c9565b60065460ff161561046f576004544210156104135760405162461bcd60e51b815260206004820152602360248201527f566f74696e673a20636875612064656e2074686f69206769616e20626f20706860448201526269657560e81b60648201526084015b60405180910390fd5b60055442111561046f5760405162461bcd60e51b815260206004820152602160248201527f566f74696e673a206461206865742074686f69206769616e20626f20706869656044820152607560f81b606482015260840161040a565b60085460ff16156104ec57335f9081526007602052604090205460ff166104ec5760405162461bcd60e51b815260206004820152602b60248201527f566f74696e673a2062616e206b686f6e6720636f2074726f6e672064616e682060448201526a736163682063752074726960a81b606482015260840161040a565b335f9081526003602052604090205460ff161561054b5760405162461bcd60e51b815260206004820152601b60248201527f566f74696e673a2062616e20646120626f20706869657520726f690000000000604482015260640161040a565b5f8111801561055c57506001548111155b6105a85760405162461bcd60e51b815260206004820181905260248201527f566f74696e673a20696420756e67207669656e206b686f6e6720686f70206c65604482015260640161040a565b5f8181526002602052604090206003015460ff166106135760405162461bcd60e51b815260206004820152602260248201527f566f74696e673a20756e67207669656e206e6179206b686f6e6720746f6e2074604482015261616960f01b606482015260840161040a565b335f908152600360209081526040808320805460ff19166001179055838352600291829052822001805491610647836118be565b909155505060405181907ffff3c900d938d21d0990d786e819f29b8d05c1ef587b462b939609625b684b16905f90a250565b5f546001600160a01b031633146106a25760405162461bcd60e51b815260040161040a906118e2565b6008805460ff1916911515919091179055565b5f546001600160a01b031633146106de5760405162461bcd60e51b815260040161040a906118e2565b5f811180156106ef57506001548111155b61073b5760405162461bcd60e51b815260206004820181905260248201527f566f74696e673a20696420756e67207669656e206b686f6e6720686f70206c65604482015260640161040a565b5f8181526002602052604090206003015460ff166107a75760405162461bcd60e51b815260206004820152602360248201527f566f74696e673a20756e67207669656e20646120626920786f61207472756f6360448201526220646f60e81b606482015260840161040a565b60065460ff1680156107bb57506004544210155b80156107c957506005544211155b1561083c5760405162461bcd60e51b815260206004820152603760248201527f566f74696e673a206b686f6e672074686520786f6120756e67207669656e206b60448201527f68692064616e672074726f6e67206b7920626175206375000000000000000000606482015260840161040a565b5f818152600260205260408120600101805461085790611926565b80601f016020809104026020016040519081016040528092919081815260200182805461088390611926565b80156108ce5780601f106108a5576101008083540402835291602001916108ce565b820191905f5260205f20905b8154815290600101906020018083116108b157829003601f168201915b5050505f8581526002602052604090819020600301805460ff191690555192935084927f8d662652a78c2e9ce96f9181f1cd23e1feb20980c5c52059a37c3c12160d74229250610920915084906117cc565b60405180910390a25050565b60605f60015b6001548111610974575f8181526002602052604090206003015460ff1615610962578161095e816118be565b9250505b8061096c816118be565b915050610932565b505f8167ffffffffffffffff81111561098f5761098f611705565b6040519080825280602002602001820160405280156109ea57816020015b6109d760405180608001604052805f8152602001606081526020015f81526020015f151581525090565b8152602001906001900390816109ad5790505b5090505f60015b6001548111610b22575f8181526002602052604090206003015460ff1615610b105760025f8281526020019081526020015f206040518060800160405290815f8201548152602001600182018054610a4890611926565b80601f0160208091040260200160405190810160405280929190818152602001828054610a7490611926565b8015610abf5780601f10610a9657610100808354040283529160200191610abf565b820191905f5260205f20905b815481529060010190602001808311610aa257829003601f168201915b50505091835250506002820154602082015260039091015460ff1615156040909101528351849084908110610af657610af661195e565b60200260200101819052508180610b0c906118be565b9250505b80610b1a816118be565b9150506109f1565b50909392505050565b60026020525f908152604090208054600182018054919291610b4c90611926565b80601f0160208091040260200160405190810160405280929190818152602001828054610b7890611926565b8015610bc35780601f10610b9a57610100808354040283529160200191610bc3565b820191905f5260205f20905b815481529060010190602001808311610ba657829003601f168201915b50505050600283015460039093015491929160ff16905084565b5f60605f5f5f85118015610bf357506001548511155b610c395760405162461bcd60e51b8152602060048201526017602482015276566f74696e673a206964206b686f6e6720686f70206c6560481b604482015260640161040a565b5f858152600260208190526040909120805491810154600382015460018301805493949390929160ff16908390610c6f90611926565b80601f0160208091040260200160405190810160405280929190818152602001828054610c9b90611926565b8015610ce65780601f10610cbd57610100808354040283529160200191610ce6565b820191905f5260205f20905b815481529060010190602001808311610cc957829003601f168201915b505050505092509450945094509450509193509193565b5f546001600160a01b03163314610d265760405162461bcd60e51b815260040161040a906118e2565b5f815111610d825760405162461bcd60e51b8152602060048201526024808201527f566f74696e673a2074656e20756e67207669656e206b686f6e672064756f6320604482015263726f6e6760e01b606482015260840161040a565b60065460ff168015610d9657506004544210155b8015610da457506005544211155b15610e175760405162461bcd60e51b815260206004820152603860248201527f566f74696e673a206b686f6e6720746865207468656d20756e67207669656e2060448201527f6b68692064616e672074726f6e67206b79206261752063750000000000000000606482015260840161040a565b610e20816114f4565b50565b60065460609060ff16610e59575060408051808201909152600e81526d25a427a723afa3a4a7a4afa420a760911b602082015290565b600454421015610e855750604080518082019091526007815266434855415f4d4f60c81b602082015290565b6005544211610eb0575060408051808201909152600781526644414e475f4d4f60c81b602082015290565b5060408051808201909152600b81526a44415f4b45545f5448554360a81b602082015290565b5f5f5f5f5f5f60608060065f9054906101000a900460ff16610f1d575060408051808201909152600e81526d25a427a723afa3a4a7a4afa420a760911b6020820152610f9c565b600454421015610f4b5750604080518082019091526007815266434855415f4d4f60c81b6020820152610f9c565b6005544211610f78575060408051808201909152600781526644414e475f4d4f60c81b6020820152610f9c565b5060408051808201909152600b81526a44415f4b45545f5448554360a81b60208201525b5f546001546006546004546005546008546001600160a01b039095169d939c5060ff9283169b50909950975090911694509092509050565b5f546001600160a01b03163314610ffd5760405162461bcd60e51b815260040161040a906118e2565b6001600160a01b0381165f81815260076020526040808220805460ff19169055517feb7e6d9f2abd09648baa85df6205c2580a880cff842ca8e548bfc02385789f669190a250565b5f546001600160a01b0316331461106e5760405162461bcd60e51b815260040161040a906118e2565b6006805460ff1916911515919091179055565b5f546001600160a01b031633146110aa5760405162461bcd60e51b815260040161040a906118e2565b5f5b818110156111f9575f8383838181106110c7576110c761195e565b90506020020160208101906110dc91906115f1565b6001600160a01b0316036111425760405162461bcd60e51b815260206004820152602760248201527f566f74696e673a20646961206368692074726f6e67206d616e67206b686f6e6760448201526620686f70206c6560c81b606482015260840161040a565b600160075f8585858181106111595761115961195e565b905060200201602081019061116e91906115f1565b6001600160a01b0316815260208101919091526040015f20805460ff19169115159190911790558282828181106111a7576111a761195e565b90506020020160208101906111bc91906115f1565b6001600160a01b03167f5cb979827581f5a2d6accf830511f42bc79705dde54d001643bb14fea7f75d5860405160405180910390a26001016110ac565b505050565b5f546001600160a01b031633146112275760405162461bcd60e51b815260040161040a906118e2565b8082106112825760405162461bcd60e51b8152602060048201526024808201527f566f74696e673a20737461727454696d652070686169207472756f6320656e6460448201526354696d6560e01b606482015260840161040a565b4281116112dd5760405162461bcd60e51b8152602060048201526024808201527f566f74696e673a20656e6454696d6520706861692074726f6e672074756f6e67604482015263206c616960e01b606482015260840161040a565b600482905560058190556006805460ff1916600117905560408051838152602081018390527f40c66ce823c3067a3fe8a7b7a31c95588aaf37f26b6932ec0224ac76d3f1318d910160405180910390a15050565b5f5f8211801561134357506001548211155b6113895760405162461bcd60e51b8152602060048201526017602482015276566f74696e673a206964206b686f6e6720686f70206c6560481b604482015260640161040a565b5f8281526002602052604090206003015460ff166113e95760405162461bcd60e51b815260206004820152601e60248201527f566f74696e673a20756e67207669656e206b686f6e6720746f6e207461690000604482015260640161040a565b505f908152600260208190526040909120015490565b5f546001600160a01b031633146114285760405162461bcd60e51b815260040161040a906118e2565b6001600160a01b03811661147e5760405162461bcd60e51b815260206004820152601c60248201527f566f74696e673a2064696120636869206b686f6e6720686f70206c6500000000604482015260640161040a565b6001600160a01b0381165f81815260076020526040808220805460ff19166001179055517f5cb979827581f5a2d6accf830511f42bc79705dde54d001643bb14fea7f75d589190a250565b6006545f9060ff166114db5750600190565b60045442101580156114ef57506005544211155b905090565b60018054905f611503836118be565b9091555050604080516080810182526001805480835260208084018681525f8587018190526060860185905292835260029091529390208251815592519192919082019061155190826119bd565b5060408281015160028301556060909201516003909101805460ff191691151591909117905560015490517fe83b2a43e7e82d975c8a0a6d2f045153c869e111136a34d1889ab7b598e396a3906115a99084906117cc565b60405180910390a250565b5f602082840312156115c4575f5ffd5b5035919050565b5f602082840312156115db575f5ffd5b813580151581146115ea575f5ffd5b9392505050565b5f60208284031215611601575f5ffd5b81356001600160a01b03811681146115ea575f5ffd5b5f81518084528060208401602086015e5f602082860101526020601f19601f83011685010191505092915050565b5f602082016020835280845180835260408501915060408160051b8601019250602086015f5b828110156116c957603f1987860301845281518051865260208101516080602088015261169b6080880182611617565b604083810151908901526060928301511515929097019190915250602093840193919091019060010161166b565b50929695505050505050565b848152608060208201525f6116ed6080830186611617565b60408301949094525090151560609091015292915050565b634e487b7160e01b5f52604160045260245ffd5b5f60208284031215611729575f5ffd5b813567ffffffffffffffff81111561173f575f5ffd5b8201601f8101841361174f575f5ffd5b803567ffffffffffffffff81111561176957611769611705565b604051601f8201601f19908116603f0116810167ffffffffffffffff8111828210171561179857611798611705565b6040528181528282016020018610156117af575f5ffd5b816020840160208301375f91810160200191909152949350505050565b602081525f6115ea6020830184611617565b60018060a01b0388168152866020820152851515604082015284606082015283608082015282151560a082015260e060c08201525f61182060e0830184611617565b9998505050505050505050565b5f5f6020838503121561183e575f5ffd5b823567ffffffffffffffff811115611854575f5ffd5b8301601f81018513611864575f5ffd5b803567ffffffffffffffff81111561187a575f5ffd5b8560208260051b840101111561188e575f5ffd5b6020919091019590945092505050565b5f5f604083850312156118af575f5ffd5b50508035926020909101359150565b5f600182016118db57634e487b7160e01b5f52601160045260245ffd5b5060010190565b60208082526024908201527f566f74696e673a20636869206f776e6572206d6f692064756f632074687563206040820152633434b2b760e11b606082015260800190565b600181811c9082168061193a57607f821691505b60208210810361195857634e487b7160e01b5f52602260045260245ffd5b50919050565b634e487b7160e01b5f52603260045260245ffd5b601f8211156111f957805f5260205f20601f840160051c810160208510156119975750805b601f840160051c820191505b818110156119b6575f81556001016119a3565b5050505050565b815167ffffffffffffffff8111156119d7576119d7611705565b6119eb816119e58454611926565b84611972565b6020601f821160018114611a1d575f8315611a065750848201515b5f19600385901b1c1916600184901b1784556119b6565b5f84815260208120601f198516915b82811015611a4c5787850151825560209485019460019092019101611a2c565b5084821015611a6957868401515f19600387901b60f8161c191681555b50505050600190811b0190555056fea264697066735822122078182446353e81d25fbd6e501a234a58fe1f4257b5e6e6d120dbff1f7882a5b464736f6c634300081c0033",
  "linkReferences": {},
  "deployedLinkReferences": {},
  "immutableReferences": {},
  "inputSourceName": "project/contracts/Voting.sol",
  "buildInfoId": "solc-0_8_28-c1f6a962444da3d8d1dc192637a7fbdea1cf93f1"
}